{
  "contractName": "MintToVote",
  "abi": [
    {
      "inputs": [],
      "payable": false,
      "stateMutability": "nonpayable",
      "type": "constructor"
    },
    {
      "constant": true,
      "inputs": [
        {
          "internalType": "uint256",
          "name": "",
          "type": "uint256"
        }
      ],
      "name": "proposals",
      "outputs": [
        {
          "internalType": "address",
          "name": "",
          "type": "address"
        }
      ],
      "payable": false,
      "stateMutability": "view",
      "type": "function"
    },
    {
      "constant": false,
      "inputs": [
        {
          "internalType": "bytes32",
          "name": "name",
          "type": "bytes32"
        },
        {
          "internalType": "bytes32[]",
          "name": "optionNames",
          "type": "bytes32[]"
        }
      ],
      "name": "createNewProposal",
      "outputs": [],
      "payable": false,
      "stateMutability": "nonpayable",
      "type": "function"
    }
  ],
  "bytecode": "0x608060405234801561001057600080fd5b506107f4806100206000396000f3fe608060405234801561001057600080fd5b50600436106100365760003560e01c8063013cf08b1461003b578063cf7754cc146100a9575b600080fd5b6100676004803603602081101561005157600080fd5b810190808035906020019092919050505061012c565b604051808273ffffffffffffffffffffffffffffffffffffffff1673ffffffffffffffffffffffffffffffffffffffff16815260200191505060405180910390f35b61012a600480360360408110156100bf57600080fd5b8101908080359060200190929190803590602001906401000000008111156100e657600080fd5b8201836020820111156100f857600080fd5b8035906020019184602083028401116401000000008311171561011a57600080fd5b9091929391929390505050610168565b005b6000818154811061013957fe5b906000526020600020016000915054906101000a900473ffffffffffffffffffffffffffffffffffffffff1681565b60008383833360405161017a90610281565b80858152602001806020018373ffffffffffffffffffffffffffffffffffffffff1673ffffffffffffffffffffffffffffffffffffffff1681526020018281038252858582818152602001925060200280828437600081840152601f19601f82011690508083019250505095505050505050604051809103906000f080158015610208573d6000803e3d6000fd5b5090806001815401808255809150509060018203906000526020600020016000909192909190916101000a81548173ffffffffffffffffffffffffffffffffffffffff021916908373ffffffffffffffffffffffffffffffffffffffff1602179055505060018060008282540192505081905550505050565b6105318061028f8339019056fe608060405234801561001057600080fd5b506040516105313803806105318339818101604052606081101561003357600080fd5b81019080805190602001909291908051604051939291908464010000000082111561005d57600080fd5b8382019150602082018581111561007357600080fd5b825186602082028301116401000000008211171561009057600080fd5b8083526020830192505050908051906020019060200280838360005b838110156100c75780820151818401526020810190506100ac565b505050509050016040526020018051906020019092919050505080600160006101000a81548173ffffffffffffffffffffffffffffffffffffffff021916908373ffffffffffffffffffffffffffffffffffffffff1602179055508260028190555060008090505b82518110156101b2576000604051806040016040528085848151811061015157fe5b602002602001015181526020016000815250908060018154018082558091505090600182039060005260206000209060020201600090919290919091506000820151816000015560208201518160010155505050808060010191505061012f565b5050505061036c806101c56000396000f3fe608060405234801561001057600080fd5b506004361061004c5760003560e01c80630121b93f14610051578063409e22051461007f5780639fde4ef8146100c8578063e2ba53f0146100e6575b600080fd5b61007d6004803603602081101561006757600080fd5b8101908080359060200190929190505050610104565b005b6100ab6004803603602081101561009557600080fd5b8101908080359060200190929190505050610235565b604051808381526020018281526020019250505060405180910390f35b6100d0610266565b6040518082815260200191505060405180910390f35b6100ee6102dc565b6040518082815260200191505060405180910390f35b6000339050600360008273ffffffffffffffffffffffffffffffffffffffff1673ffffffffffffffffffffffffffffffffffffffff16815260200190815260200160002060009054906101000a900460ff16156101ac576040517f08c379a000000000000000000000000000000000000000000000000000000000815260040180806020018281038252602f815260200180610309602f913960400191505060405180910390fd5b6001600360008373ffffffffffffffffffffffffffffffffffffffff1673ffffffffffffffffffffffffffffffffffffffff16815260200190815260200160002060006101000a81548160ff02191690831515021790555060016000838154811061021357fe5b9060005260206000209060020201600101600082825401925050819055505050565b6000818154811061024257fe5b90600052602060002090600202016000915090508060000154908060010154905082565b6000806000905060008090505b6000805490508110156102d757816000828154811061028e57fe5b906000526020600020906002020160010154106102ca57600081815481106102b257fe5b90600052602060002090600202016001015491508092505b8080600101915050610273565b505090565b6000806102e7610266565b815481106102f157fe5b90600052602060002090600202016000015490509056fe5468697320616464726573732068617320616c726561647920766f746564206f6e20746869732070726f706f73616ca265627a7a72315820302f03dcceda634fc39b53529d39ca732a21ad01c9be3d165454034627e57c4e64736f6c63430005100032a265627a7a72315820bcc7d6048f9211b756e4f81b249d13e1dce7ae48ab686e76a4975a15721a681064736f6c63430005100032",
  "source": "// SPDX-License-Identifier: MIT\npragma solidity ^0.5.16;\n\nimport \"./Proposal.sol\";\n\n//specifies how child contracts (which represent different proposals) are created\ncontract MintToVote{\n\n  //dynamic array to store all proposal addresses\n  address[] public proposals;\n\n  //stores the number of proposals\n  int numProposals;\n\n\n  constructor() public{\n    \n  }\n\n  //public function for anyone to create a new proposal, takes in a bytes 32 name, and a bytes32 array containing the voting options for the proposal\n  function createNewProposal(bytes32 name, bytes32[] calldata optionNames) external{\n    //store new Proposal in proposal array\n    proposals.push(address(new Proposal(name, optionNames, msg.sender)));\n    //increase numProposals\n    numProposals+=1;\n  }\n}\n\n",
  "sourcePath": "/Users/ethannguyen/Desktop/hackathon-2022-vote-to-mint-smart-contract/H20/contracts/MintToVote.sol",
  "compiler": {
    "name": "solc",
    "version": "0.5.16+commit.9c3226ce.Emscripten.clang"
  },
  "schemaVersion": "3.4.4",
  "updatedAt": "2022-01-13T00:56:28.456Z",
  "networkType": "ethereum",
  "devdoc": {
    "methods": {}
  },
  "userdoc": {
    "methods": {}
  }
}