{
	"contractName": "Proposal",
	"abi": [
		{
			"inputs": [
				{
					"internalType": "bytes32",
					"name": "name",
					"type": "bytes32"
				},
				{
					"internalType": "bytes32[]",
					"name": "optionNames",
					"type": "bytes32[]"
				},
				{
					"internalType": "address",
					"name": "proposer",
					"type": "address"
				}
			],
			"payable": false,
			"stateMutability": "nonpayable",
			"type": "constructor"
		},
		{
			"constant": true,
			"inputs": [
				{
					"internalType": "uint256",
					"name": "",
					"type": "uint256"
				}
			],
			"name": "options",
			"outputs": [
				{
					"internalType": "bytes32",
					"name": "optionName",
					"type": "bytes32"
				},
				{
					"internalType": "uint256",
					"name": "voteCount",
					"type": "uint256"
				}
			],
			"payable": false,
			"stateMutability": "view",
			"type": "function"
		},
		{
			"constant": false,
			"inputs": [
				{
					"internalType": "uint256",
					"name": "option",
					"type": "uint256"
				}
			],
			"name": "vote",
			"outputs": [],
			"payable": false,
			"stateMutability": "nonpayable",
			"type": "function"
		},
		{
			"constant": true,
			"inputs": [],
			"name": "winningOption",
			"outputs": [
				{
					"internalType": "uint256",
					"name": "winningOption_",
					"type": "uint256"
				}
			],
			"payable": false,
			"stateMutability": "view",
			"type": "function"
		},
		{
			"constant": true,
			"inputs": [],
			"name": "winnerName",
			"outputs": [
				{
					"internalType": "bytes32",
					"name": "winnerName_",
					"type": "bytes32"
				}
			],
			"payable": false,
			"stateMutability": "view",
			"type": "function"
		}
	],
	"bytecode": "0x608060405234801561001057600080fd5b506040516105313803806105318339818101604052606081101561003357600080fd5b81019080805190602001909291908051604051939291908464010000000082111561005d57600080fd5b8382019150602082018581111561007357600080fd5b825186602082028301116401000000008211171561009057600080fd5b8083526020830192505050908051906020019060200280838360005b838110156100c75780820151818401526020810190506100ac565b505050509050016040526020018051906020019092919050505080600160006101000a81548173ffffffffffffffffffffffffffffffffffffffff021916908373ffffffffffffffffffffffffffffffffffffffff1602179055508260028190555060008090505b82518110156101b2576000604051806040016040528085848151811061015157fe5b602002602001015181526020016000815250908060018154018082558091505090600182039060005260206000209060020201600090919290919091506000820151816000015560208201518160010155505050808060010191505061012f565b5050505061036c806101c56000396000f3fe608060405234801561001057600080fd5b506004361061004c5760003560e01c80630121b93f14610051578063409e22051461007f5780639fde4ef8146100c8578063e2ba53f0146100e6575b600080fd5b61007d6004803603602081101561006757600080fd5b8101908080359060200190929190505050610104565b005b6100ab6004803603602081101561009557600080fd5b8101908080359060200190929190505050610235565b604051808381526020018281526020019250505060405180910390f35b6100d0610266565b6040518082815260200191505060405180910390f35b6100ee6102dc565b6040518082815260200191505060405180910390f35b6000339050600360008273ffffffffffffffffffffffffffffffffffffffff1673ffffffffffffffffffffffffffffffffffffffff16815260200190815260200160002060009054906101000a900460ff16156101ac576040517f08c379a000000000000000000000000000000000000000000000000000000000815260040180806020018281038252602f815260200180610309602f913960400191505060405180910390fd5b6001600360008373ffffffffffffffffffffffffffffffffffffffff1673ffffffffffffffffffffffffffffffffffffffff16815260200190815260200160002060006101000a81548160ff02191690831515021790555060016000838154811061021357fe5b9060005260206000209060020201600101600082825401925050819055505050565b6000818154811061024257fe5b90600052602060002090600202016000915090508060000154908060010154905082565b6000806000905060008090505b6000805490508110156102d757816000828154811061028e57fe5b906000526020600020906002020160010154106102ca57600081815481106102b257fe5b90600052602060002090600202016001015491508092505b8080600101915050610273565b505090565b6000806102e7610266565b815481106102f157fe5b90600052602060002090600202016000015490509056fe5468697320616464726573732068617320616c726561647920766f746564206f6e20746869732070726f706f73616ca265627a7a72315820302f03dcceda634fc39b53529d39ca732a21ad01c9be3d165454034627e57c4e64736f6c63430005100032",
	"source": "// SPDX-License-Identifier: MIT\npragma solidity ^0.5.16;\n\n\ncontract Proposal{\n\n  struct Option{\n    bytes32 optionName; //up to 32byte long name of option to vote for in proposal\n    uint voteCount; //cumulative votes for said option\n  }\n\n  //dynamically sized array of options for proposal\n  Option[] public options;\n\n  //person who created the proposal\n  address _proposer;\n\n  //name of proposal\n  bytes32 _name;\n\n  //mapping to chekc if a user has already voted on a proposal\n  mapping(address => bool) hasVoted;\n\n\n  constructor(bytes32 name, bytes32[] memory optionNames, address proposer) public {\n    _proposer = proposer;\n    _name = name;\n\n    //for each of the options names, create a new Option object and append to 'options' dynamic array\n    for (uint i = 0; i < optionNames.length; i++) {\n      options.push(Option({\n        optionName: optionNames[i],\n        voteCount: 0\n      }));\n    }\n  }\n\n  //casts a vote where option is the index of the selected option\n  function vote(uint option) external{\n    address sender = msg.sender;\n    require(!hasVoted[sender], \"This address has already voted on this proposal\");\n    hasVoted[sender] = true;\n    options[option].voteCount += 1;\n  }\n  \n  //computes winning option from proposal by looking at all votes\n  function winningOption() public view\n            returns (uint winningOption_)\n    {\n        uint winningOptionCount = 0;\n        for (uint p = 0; p < options.length; p++) {\n            if (options[p].voteCount >= winningOptionCount) {\n                winningOptionCount = options[p].voteCount;\n                winningOption_ = p;\n            }\n        }\n    }\n\n    // Calls winningProposal() function to get the index\n    // of the winner contained in the proposals array and then\n    // returns the name of the winner\n    function winnerName() external view\n            returns (bytes32 winnerName_)\n    {\n        winnerName_ = options[winningOption()].optionName;\n    }\n\n\n\n}\n\n",
	"sourcePath": "/Users/ethannguyen/Desktop/hackathon-2022-vote-to-mint-smart-contract/H20/contracts/Proposal.sol",
	"compiler": {
		"name": "solc",
		"version": "0.5.16+commit.9c3226ce.Emscripten.clang"
	},
	"schemaVersion": "3.4.4",
	"updatedAt": "2022-01-13T00:16:48.632Z",
	"devdoc": {
		"methods": {}
	},
	"userdoc": {
		"methods": {}
	}
}